:020000040000FA
:200000000203370218034100C4002202180B222222FFFF021813E4FFA10EFF02181B75C8A7
:200020000122FF021823FFFFFFFFFF02182BFFFFFFFFFF021833FFFFFFFFFF02183BFFFF8B
:20004000FFFFFF021843FFFFFFFFFF02184BFFFFFFFFFF021853FFFFFFFFFF02185BFFFF10
:20006000FFFFFF021863FFFFFFFFFF02186BFFFFFFFFFF021873BB010689828A83E02250D2
:2000800002E722BBFE02E32289828A83E49322BB010CE58229F582E5833AF583E0225006A3
:2000A000E92582F8E622BBFE06E92582F8E222E58229F582E5833AF583E49322BB01068960
:2000C000828A83F0225002F722BBFE01F322F8BB010DE58229F582E5833AF583E8F0225019
:2000E00006E92582C8F622BBFE05E92582C8F222C5F0F8A3E028F0C5F0F8E58215827002FB
:200100001583E038F022A3F8E0C5F025F0F0E582158270021583E0C838F0E822BB010A89B7
:20012000828A83E0F5F0A3E022500687F009E71922BBFE07E3F5F009E3192289828A83E423
:2001400093F5F074019322BB010A89828A83F0E5F0A3F0225006F709A7F01922BBFE06F3CB
:20016000E5F009F31922EF2BFFEE3AFEED39FDEC38FC22C3EF9BFFEE9AFEED99FDEC98FCFA
:200180002275F008758200EF2FFFEE33FECD33CDCC33CCC58233C5829BED9AEC99E582989E
:2001A000400CF582EE9BFEED9AFDEC99FC0FD5F0D6E4CEFBE4CDFAE4CCF9A88222B800C180
:2001C000B90059BA002DEC8BF084CFCECDFCE5F0CBF97818EF2FFFEE33FEED33FDEC33FC38
:2001E000EB33FB10D703994004EB99FB0FD8E5E4F9FA227818EF2FFFEE33FEED33FDEC33D3
:20020000FCC933C910D7059BE99A4007EC9BFCE99AF90FD8E0E4C9FAE4CCFB2275F010EF2E
:200220002FFFEE33FEED33FDCC33CCC833C810D7079BEC9AE899400AED9BFDEC9AFCE89964
:20024000F80FD5F0DAE4CDFBE4CCFAE4C8F922EF5BFFEE5AFEED59FDEC58FC22EB9FF5F038
:20026000EA9E42F0E99D42F0E89C45F022E8600FECC313FCED13FDEE13FEEF13FFD8F12234
:20028000E8600FEFC333FFEE33FEED33FDEC33FCD8F122E0FCA3E0FDA3E0FEA3E0FF22E080
:2002A000F8A3E0F9A3E0FAA3E0FB22ECF0A3EDF0A3EEF0A3EFF022A8828583F0D083D08265
:2002C0001202CE1202CE1202CE1202CEE473E493A3C583C5F0C583C8C582C8F0A3C583C569
:2002E000F0C583C8C582C822E0FBA3E0FAA3E0F922F8E0FBA3A3E0F925F0F0E58215827072
:20030000021583E0FA38F022EBF0A3EAF0A3E9F022D083D082F8E4937012740193700DA36B
:20032000A393F8740193F5828883E4737402936860EFA3A3A380DF75814B0207A20436FF81
:20034000FEFFFFAEFFEE54CFFEEFC454F024804EF5FF2290091151AB9009115193B1A190D0
:200360000915E06F6034110F9108EF6004111080F7B11AB1DB9000BAE0FF91E660099009DF
:20038000115193781071A0900911719C90091191EF900915E0FFB108D322C322519378086A
:2003A000516DE4E5C820E2FB8FEB229000D151AB9000D57108110F9108EF6004111080F776
:2003C000B11AB1DB9000BAE0FF91E660099000D15193781071A09000D1719C9000D151932C
:2003E000E4801B9000D8F19960189000D551E8EA494B60089000D5120E328001E4FF71A361
:2004000080E1B126E4FFA10E7F01B10E300214D1BB915890092AEFF0B12690092AE020E0FC
:2004200002C20230021791479000B8EFF173600BA3E0F46006EF30E702C202B126E4FFB1BB
:200440000EA202E433FF22B1DB7FD771A37FFF71A3915C9000B7EFF07FFF71A3E5C820E2D6
:20046000FBAFEB227F01B10E9009287401F0900928E0602ED1BB9158900928EFF0B12691B4
:20048000479000B8EFF0B126900928E05401F17360DCA3E0F460D7EF30E7D3E4900928F065
:2004A00080CCB1DB7F9F71A391589000B991569000BE91569000BFEFF0B10A9000B7E0F4E0
:2004C000601BA3E0F460169000BEE0FD541F240FA3F0EDC413540744809000BEF0227F018D
:2004E000B10EB1DB7F0371A39000BDE06402225193E461A3900000E0FEA3E0FF22FFFFFF8B
:20050000FFFFFFFFFFFFFFFF71A3B126E4FFEFB4010443FE202253FEDF227F01B10ED20285
:20052000B1DB7F0671A31213EEEF70FA9000BEE0F4600A9009277406F0F17B70FC9000BC50
:20054000E07111055F04056714056C15057117058130058634058B36059037000005794376
:200560004610854680802F43471080084347208003434780854790801D4348208548A08041
:2005800015434901800D434910800843494080034349808549B0900927740CF0F17B70FC27
:2005A0002290090C51AB110F9108EF6004111080F791DE600990090C5193781071A0900941
:2005C0000C719C90090C91EF9158900910EFF0B10A900910E0FF227F01B10E9000BCE0712B
:2005E0001105FD04060514060A15060F17061F30062434062936062E37000006175346EF4C
:20060000854680802F5347EF80085347DF800353477F854790801D5348DF8548A0801553F2
:2006200049FE800D5349EF80085349BF800353497F8549B07F0CDFFE22110F9108EF6004C6
:20064000111080F7B11AB1DB7F0171A37F0371A3B126E4FFA10E9000DA51AB9000DE7108CB
:20066000110F9108EF6004111080F791DE60099000DA5193781071A09000DA719C9000DA36
:2006800091EF9000E1F199601291589000DE51E8EF11BC9000DF1212B180E7B126E4FFA11B
:2006A0000E9000B7E020E012B1D77F3D71A37F2A71A37F8071A37FA6B10822B1DB7F05615A
:2006C000A3900929EFF09000C5E064027022B1D7900929E07FAB60027FB971A3B126900937
:2006E00029E09000C4F070047F1EDFFEE4FFB10E22900000EEF0A3EFF0A35193900008519B
:20070000AB900006E0FFA3E090000CCF805D90000C120FE3605BC3EF9440EE94004006A3A2
:200720007440F0800590000EEFF0F183E0FF120D14EFF09000085193D15690000EE0FFC3CB
:2007400090000DE09FF090000CE09400F0900008519F90000EE4FCFDFE316690000851AB61
:2007600091F4F183120C39900000EEF0A3EFF0809D81F4F09000B7E0FFF422900927E014C7
:20078000F0E0227B017A00790F90000E22110F9108EF6004111080F72274FFF5F03106458F
:2007A000F02275FF03759E0290033DE493F53C75FF02E5E654036003020B64753CDE753D76
:2007C000AD753EBE753FEFC2AF75FF0275E404F5E47546FF7547FF7548FF7549FF7542FF97
:2007E0007543FF7544FF7545FF75FF0253E6BF1212D41210DB120FEAEF64016003020B5B44
:2008000090180893FE740193FF9000ADEEF0A3EFF0F5828E83E493F540740193F54174020B
:2008200093F54A740393F54B740493F530740593F531740693F532740793F533C201EF4ED0
:2008400070022132EFF4FFEEF44F70022132E540454AFEE541454BFFE5304EFEE5314FFFCF
:20086000E5324EFEE5334F4E70022132E54BF4FFE54AF4FEE541F4FDE540F44EFEED4FFFA0
:20088000E531F4FDE530F44EFEEF4DFFE533F4FDE532F44EFEEF4D4E700221327F0312037B
:2008A00043E53324FFFFE532B12B640370247F02120343E53124FFFFE530B12BB402137F83
:2008C00001120343E54B24FFFFE54AB12BB40102D20120015D7F01120343B14C9000E8E528
:2008E0004AF0A3E54BF07F0F7E1D91AC7F02B1419000E8E530F0E53191AA7F03B141900050
:20090000E8E532F0E53391AA7F01120343900922E0FEA3E0FF7BFF7A187900E42541900043
:20092000E9F0E54034E89000E891AB4EC37001D39201300109B1A1EF64016002615B900073
:20094000ADE0FEA3E0F5828E83740C93F53A740D93F53B9000961202937167900079B18894
:20096000FD9000AF718FEF2408FFE43E71797B007A007938B1147402F0120656C200D390B1
:200980000078E09539900077E095384002416A9000AF12029FC000C001C002C003AE38AF03
:2009A00039E4FCFDC006C007900077E0FEA3E0FBAA06E4F9F8D007D006120173D003D002D4
:2009C000D001D000120166716790007B120293EF24F2FFEE34FFB1539000AFB1DB400241FC
:2009E0006A9000AF1202937A00799FB112740EF01206569000ABE0F536A3E0F5379000A14C
:200A0000E0F54AA3E0F54BA3E0F530A3E0F531A3E0F532A3E0F533900092120293EF24FF73
:200A2000FFEE347F71797167AE4AAF4BE4FCFD9000AF718F1205A1EF6401702E716D7167E6
:200A4000AE30AF31E4FCFD9000AF718F1205A1BF0218716D7167AE32AF33E4FCFD9000AF97
:200A6000718F1205A1BF0302D200200002615730010EE53B65377004E53A653670026157FB
:200A80007B017A09792271954002615790009B1202B700001800718161317440D39534508A
:200AA00002614690007B91BAEE34F8B1539000AF12029FD312025C4002614690009B1202BC
:200AC000937B007AF879017800C312025C40779000AF1202930B7A0179009000E17408F0F8
:200AE000A3E4F0120656E4F535FB91E6AF34B15DE535C39408502091E4E5357F00FEEF2498
:200B000000F974013EFA7B0190090BE535F0AD34121337053580D990009B91BAEE34087124
:200B20007990009B1202AB9000AF91BAEE340871797167E4FB7A08F9F890009B12029312A6
:200B400001BD8F34419A7440D39534400A91E4AF34B15D053480EFE4FFB1E2E4F53CF53DD4
:200B6000F53EF53F0218009000AF0202AB9000AF120293E42FFFEE3480FEE43DFDE43CFC34
:200B800022900079E0FEA3E0FFE4FCFD90009612029F02016690091F1203087181EF2408C9
:200BA000FFE43E71797A00797FB1127402F012065690007FB188FD900092718F7B017A00C4
:200BC0007984B114740EF0120656900092717091C9900086B1347F0F7E1D91CFB11BC00600
:200BE000C00791B7E43E91C1900088B134D007D00691CFB11BC006C00791B7EE348091C1D3
:200C000090008AB134D007D00691CFB11BC006C007718191C9900085E02400FE900084E018
:200C200034E8900006F0A3CEF0D007D00691CF12011C45F0C37001D322E0FD9000E8E4F0EE
:200C4000A3EDF09000E3EEF0A3EFF0A31203089000E8120799604A9000E5D1329000EAF0CB
:200C60007D80ED60EA91A1EE7C0030E7027C019000EAE05D7B0060027B01EB6CFCEF25E0B7
:200C8000FFEE339000E3F0A3EFF0AF04EF600C9000E3E06410F0A3E06421F0EDC313FD8052
:200CA000C19000E3E0FEA3E0FF22A3F09143900922EEF0A3EFF022900092120293E42FFFFF
:200CC00022FEED3401FDE43CFC9000020202AB1206F190091F1202E8EE8FF012014790095B
:200CE0001F0202E87B007A00793CB18175FF03120076F5D375FF03900001B122900002B128
:200D000022900003B12275D40175FF03E5D55402FF227B019000E1E4F0A32212011CFFAEF7
:200D2000F02212008FF5D375FF0322347F8F82F583E49322E0FFA3E0900006CFF0A3EFF091
:200D400022120343900922E0FEA3E0FF7BFF7A80790022FEED34FFFDEC34FFFC2275FF0320
:200D6000EF543F4480F5D1E5D520E20AE5D520E005E5D530E1F1E5D55403FF75FF0375D555
:200D80000575FF0375D40222E0FEA3E0FFE4FC227F0F7E1D913B9000EF1202E89000F28195
:200DA00039E4900926F090009AE06020B1D270087FFF7E77FDFC800CD12250107FFF7EFF9C
:200DC0007D017C001205A1900926EFF0900926E0FF22E4FFFE7D02FC90007B12029FC30224
:200DE000025C900924EFF0E4A3F090009AE06021B1D27008D1177E777D00800AD1225011C4
:200E0000D1177EFF7D017C00120353E433900925F0900925E0FF22900924E0900915F07FCD
:200E2000FF2290007B120293E4FBFA7904F8D302025CE475F0011202F1020076B18175FFF1
:200E400003E5D5F45402FF229000FCD163C0079000FC1202E89000FFE0FFB114EFF0D00772
:200E6000020656120308E4FCFD22900902D163C0079009021202E8900905F1D7F0D007900E
:200E8000004F1202AB900053120308E4900076F0D3900057E0941E900056E0940040012261
:200EA0007B017A007958900056E0FFA3E09000E1CFF0A3EFF090004F1202931206569000ED
:200EC000531202E8E94A600F900076E0F58275830012008FFF80027F00900076E02458F5D4
:200EE00082E43400F583E06F6002C322900076E004FFF0D3900057E09F900056E09400508E
:200F0000BD229000C61202AB9000CA12030812143F9000CDF1D7F09000C6120293D17F504F
:200F200002E1CC9000C1E024FFFF9000C0E034FFFEE4FCFD9000C612029F12024F9000CFA6
:200F4000EEF0A3EFF04E603BF1CEC39000C1E09FFF9000C0E09EFE9000CFF0A3EFF09000CA
:200F6000CDE0FCA3E0FDD39FEC9E5006A3ECF0A3EDF01213FAE94A6004F1CE80427E007FC3
:200F800000803C9000CDF1E360409000C0E0FCA3E0FDD3EF9DEE9C400A9000CFECF0A3ED1A
:200FA000F0800D9000CDE0FFA3E0A3CFF0A3EFF01213FAE94A6004F1CE80047E007F00908B
:200FC00000CBEE8FF01200F080B9D322C3229000CFE0FEA3E0FF22E0FFA3E0900056CFF0DC
:200FE000A3EF22E0FEA3E0FF4E22E490009AF07B017A00798112137F900083E0FBB4112206
:201000009000961202B7000078009000921202B7000060009000777418F0A3E4F0A3F0A3EA
:2010200080277412D39B50279000961202B7000200009000921202B700020000E4900077D1
:20104000F0A3F0A37418F0A3E4F090009A04F090009AE0FB6017E4FFFE7D02FC900083E08E
:2010600024EFF9F812028090007B1202ABAF032275FF03E4F59751B8E59720E1FB75FF035B
:20108000AF9922900916EFF0A3EDF0A3120308900917E06045901215E06012900916E02427
:2010A00010FF11709009181202E8EF8017900916E0640190091870071202E87480800512CA
:2010C00002E874FF1200BC90091951B1900917E014F0900916E004F080B5227B017A007954
:2010E000BC7F0351987A0079C57F0851987A0079C27D027F0911837B017A0079C07D027F24
:201100000B11839000C0120FE36006BEFF1BBFFF189000C5E024FD600304700451A7800916
:201120009000C0E4F0A37440F09000C5E024FD60030470089000BD7403F080069000BD7414
:2011400002F09000BCE0120311116504117014117815118017119630119E3411A63611AE90
:20116000370000118B75FF015342EF8542FD804775FF015343EF800E75FF015343DF800620
:2011800075FF0153437F8543C9802C75FF015344DF8544CA802175FF015345FE801675FF54
:2011A000015345EF800E75FF015345BF800675FF0153457F8545CB1205267F115192E4FF13
:2011C0001206C11204649000BA7402F09000BEE0247F6009047016519F740A80071206A19A
:2011E000519F7458F09000BD7403F051A79000BFE0F46002418F9000C2E0FEA3E0FF64101C
:201200004E70069000BF740EF0EF64204E70069000BF740FF0EF64404E70069000BF741026
:20122000F0EF64804E70069000BF7411F0E4B5070AEEB401069000BF7412F0E4B5070AEEB3
:20124000B402069000BF7413F0E4B5070AEEB404069000BF7414F0E4B5070AEEB408069005
:2012600000BF7415F0E4B5070AEEB410069000BF7416F0E4B5070AEEB420069000BF7417BF
:20128000F0E4B5070AEEB440069000BF7418F0020639EF4420F5FE227D0111837B01227F29
:2012A0001051929000BA229000C07401F0A3E4F022E475F0010200F075FF038F9875FF0330
:2012C0002275FF0375970151B8E59720E1FB75FF03AF992290091B7410F090091BE0FFD378
:2012E000947F503D117090091CEFF090091BE0B410067E1D7F0F800890091DE0FEA3E0FF14
:201300007B017A09791C9000E8E4F0A304F0120C4390091DEEF0A3EFF090091BE004F080D7
:20132000B990091DE07002A3E07F0070027F01901215EFF024FF2275FF03ACD5EC20E13CFC
:2013400075FF03ED543FF5D175FF03E9F5D375FF03EA540FFF90090BE0C4547044804FF5D1
:20136000D2E5D520E205E5D530E0F6E5D55401FC75FF0343D40275FF0375D505AF04229054
:2013800000B9E01200BC9000BEE09000011200CE9000BFE09000020200CEE4FCFD0205A131
:2013A000AB05E4FCFD900915EBF00203539000F5120E63C0079000F51202E89000F8E0FF08
:2013C000A3E09000CDCFF0A3EFF0D007020F02EFB40109D2AD75FF0143AE4022C2AD75FF2B
:2013E0000153AEBF22E5C85402FF75C80222E5C85404FF22E5C85401FF229000CA1202E808
:201400009000CFE0FFA3E09000D8CFF0A3EFF09000C61202931203AB9000CFE0FEA3E0FFE6
:20142000C39000CEE09FF09000CDE09EF09000C612029FE4FCFD1201669000C61202AB904D
:2014400000CA0202E8FFFFFFFFFFFFFFFFFFFFFFFFFFFFFFFFFFFFFFFFFFFFFFFFFFFFFFF1
:20146000FFFFFFFFFFFFFFFFFFFFFFFFFFFFFFFFFFFFFFFFFFFFFFFFFFFFFFFFFFFFFFFF8C
:20148000FFFFFFFFFFFFFFFFFFFFFFFFFFFFFFFFFFFFFFFFFFFFFFFFFFFFFFFFFFFFFFFF6C
:2014A000FFFFFFFFFFFFFFFFFFFFFFFFFFFFFFFFFFFFFFFFFFFFFFFFFFFFFFFFFFFFFFFF4C
:2014C000FFFFFFFFFFFFFFFFFFFFFFFFFFFFFFFFFFFFFFFFFFFFFFFFFFFFFFFFFFFFFFFF2C
:2014E000FFFFFFFFFFFFFFFFFFFFFFFFFFFFFFFFFFFFFFFFFFFFFFFFFFFFFFFFFFFFFFFF0C
:20150000FFFFFFFFFFFFFFFFFFFFFFFFFFFFFFFFFFFFFFFFFFFFFFFFFFFFFFFFFFFFFFFFEB
:20152000FFFFFFFFFFFFFFFFFFFFFFFFFFFFFFFFFFFFFFFFFFFFFFFFFFFFFFFFFFFFFFFFCB
:20154000FFFFFFFFFFFFFFFFFFFFFFFFFFFFFFFFFFFFFFFFFFFFFFFFFFFFFFFFFFFFFFFFAB
:20156000FFFFFFFFFFFFFFFFFFFFFFFFFFFFFFFFFFFFFFFFFFFFFFFFFFFFFFFFFFFFFFFF8B
:20158000FFFFFFFFFFFFFFFFFFFFFFFFFFFFFFFFFFFFFFFFFFFFFFFFFFFFFFFFFFFFFFFF6B
:2015A000FFFFFFFFFFFFFFFFFFFFFFFFFFFFFFFFFFFFFFFFFFFFFFFFFFFFFFFFFFFFFFFF4B
:2015C000FFFFFFFFFFFFFFFFFFFFFFFFFFFFFFFFFFFFFFFFFFFFFFFFFFFFFFFFFFFFFFFF2B
:2015E000FFFFFFFFFFFFFFFFFFFFFFFFFFFFFFFFFFFFFFFFFFFFFFFFFFFFFFFFFFFFFFFF0B
:20160000FFFFFFFFFFFFFFFFFFFFFFFFFFFFFFFFFFFFFFFFFFFFFFFFFFFFFFFFFFFFFFFFEA
:20162000FFFFFFFFFFFFFFFFFFFFFFFFFFFFFFFFFFFFFFFFFFFFFFFFFFFFFFFFFFFFFFFFCA
:20164000FFFFFFFFFFFFFFFFFFFFFFFFFFFFFFFFFFFFFFFFFFFFFFFFFFFFFFFFFFFFFFFFAA
:20166000FFFFFFFFFFFFFFFFFFFFFFFFFFFFFFFFFFFFFFFFFFFFFFFFFFFFFFFFFFFFFFFF8A
:20168000FFFFFFFFFFFFFFFFFFFFFFFFFFFFFFFFFFFFFFFFFFFFFFFFFFFFFFFFFFFFFFFF6A
:2016A000FFFFFFFFFFFFFFFFFFFFFFFFFFFFFFFFFFFFFFFFFFFFFFFFFFFFFFFFFFFFFFFF4A
:2016C000FFFFFFFFFFFFFFFFFFFFFFFFFFFFFFFFFFFFFFFFFFFFFFFFFFFFFFFFFFFFFFFF2A
:2016E000FFFFFFFFFFFFFFFFFFFFFFFFFFFFFFFFFFFFFFFFFFFFFFFFFFFFFFFFFFFFFFFF0A
:20170000FFFFFFFFFFFFFFFFFFFFFFFFFFFFFFFFFFFFFFFFFFFFFFFFFFFFFFFFFFFFFFFFE9
:20172000FFFFFFFFFFFFFFFFFFFFFFFFFFFFFFFFFFFFFFFFFFFFFFFFFFFFFFFFFFFFFFFFC9
:20174000FFFFFFFFFFFFFFFFFFFFFFFFFFFFFFFFFFFFFFFFFFFFFFFFFFFFFFFFFFFFFFFFA9
:20176000FFFFFFFFFFFFFFFFFFFFFFFFFFFFFFFFFFFFFFFFFFFFFFFFFFFFFFFFFFFFFFFF89
:20178000FFFFFFFFFFFFFFFFFFFFFFFFFFFFFFFFFFFFFFFFFFFFFFFFFFFFFFFFFFFFFFFF69
:2017A000FFFFFFFFFFFFFFFFFFFFFFFFFFFFFFFFFFFFFFFFFFFFFFFFFFFFFFFFFFFFFFFF49
:2017C000FFFFFFFFFFFFFFFFFFFFFFFFFFFFFFFFFFFFFFFFFFFFFFFFFFFFFFFFFFFFFFFF29
:2017E000FFFFFFFFFFFFFFFFFFFFFFFFFFFFFFFFFFFFFFFFFFFFFFFFFFFFFFFFFFFFFFFF09
:201800000234BA0267093A617FB82202674D28AA28B0FF0267482A062A30FF02678C2AD2E8
:201820002AD8FF02668B2B202B26FF025D29EC30E703122229222E3E2E98FF0267915A2D5A
:201840005761766520342E353400FF025431286E287AFF0266CA29CA2AC0FF024050DFFED0
:2018600022A2AF92D5C2AF315CEF319331E0EC319331E0ED319331E0315C74014F31933103
:20188000E079808006510E513FF709DBF8510E514EF75187A2D592AF22A2AF92D5C2AF3126
:2018A0005CEF319331E0EC319331E0ED319331E07980E7319331E009DBF85187A2D592AF64
:2018C00022A2AF92D5C2AF315CEF319331E0ED319331E0315C74014F319331E07980800605
:2018E000510E513FF709DBF8510E514EF75187A2D592AF22A2AF92D5C2AF315CEF319331E5
:20190000E0ED319331E07980E7319331E009DBF85187A2D592AF22A2AF92D5C2AF315C74B8
:20192000014F319331E079808006510E513FF709DDF8510E514EF75187A2D592AF22A2AF47
:2019400092D5C2AF315CEF319331E07980E7319331E009DDF85187A2D592AF2275FF014361
:2019600055804359808555CA75FF014355404359408555CA51BEC2A775FF0153557F855517
:20198000CAC2A751BEC2A675FF015355BF8555CAC2A6227808C2A675FF015355BF8555CA2B
:2019A000C2A633400FC2A775FF0153557F8555CAC2A7800C75FF014355804359808555CA52
:2019C00051BE75FF014355404359408555CA51BED8C3C2A675FF015355BF8555CAC2A6220F
:2019E00075FF014355804359808555CA75FF014355404359408555CA51BEA2A70000000075
:201A0000C2A675FF015355BF8555CAC2A62275FF014355804359808555CA780875FF0143CF
:201A200055404359408555CA51BEA2A733C2A675FF015355BF8555CAC2A651BED8DE22C20D
:201A4000A775FF0153557F8555CAC2A7800E75FF014355804359808555CA51BE75FF014394
:201A600055404359408555CA51BEC2A675FF015355BF8555CAC2A651BEC2A775FF0153555D
:201A80007F8555CAC2A722C2A775FF0153557F8555CAC2A7C2A675FF015355BF8555CAC2DC
:201AA000A651BE75FF014355404359408555CA51BE75FF014355804359808555CA22000026
:201AC0000000000000000000000000000022021E8FE86480F8E933E83360110460F0ED3355
:201AE000EC337009E8FCE9FDEAFEEBFF220460DED3EB9FEA9EE99DE8C2E78CF0C2F795F098
:201B0000400CE8CCF8E9CDF9EACEFAEBCFFB121E5A85D0F05804700320D5B3E804700750BE
:201B200002B2D5021E9992D5EC0460F7E4CCC0E0C398F8603B94186008400DD0E0FB021E4B
:201B400071E4FBFAC9FC8028E830E406E4C9FBE4CAFCE830E305E4C9CACBFCE85407601089
:201B6000F8C3E913F9EA13FAEB13FBEC13FCD8F130F52FC3E49CFCEF9BFFEE9AFEED99FDDC
:201B8000D0E0FBEF4E4D4C701222DB03021E96EC2CFCEF33FFEE33FEED33FDED30E7EB022A
:201BA0001E71EF2BFFEE3AFEED39FDD0E0FB50130BBB0003021E99ED13FDEE13FEEF13FFA7
:201BC000EC13FC021E71EC4D6011E8497017ED33EC3304600DE4FCFFFEFD22E933E8330430
:201BE00070F8021E8F121E5A58046009E4CC24815006285009021E99284003021E96C0E0D9
:201C0000EB4A7044B98006D0E0FB021E85EF4E701CBD8008EBFFEAFEE9FD80EBE98DF0A411
:201C2000FEE5F0021CAFE9CDF9EAFEEBFFEF89F0A4FCE5F0CE89F0A42EFFE435F0CD89F03F
:201C4000A42DFEE435F08067EF4E7005BD80D780C3EF8BF0A4ACF0EE8BF0A42CFCE435F0D4
:201C6000F8EF8AF0A42CE5F038FCE433CB8DF0A42CFCE5F03BF8EE8AF0A42CFCE5F038F8BE
:201C8000E433CF89F0A42CFCE5F038CF3400CE89F0A42FFFE5F03EFEE433C98DF0A42EFEB2
:201CA000E5F039CD8AF0A42FFFE5F03EFEE43DFD33D0E0FB50070BBB000F021E99EC2CFCF7
:201CC000EF33FFEE33FEED33FD021E71021E99EC5D046005E859047003021E8F121E5A5862
:201CE0000460F6EC4860F2EC7004FDFEFF22C860DB2481C85009C39860025006021E96985E
:201D000050CAF582E9294B4A7005AB82021E8575F0007C1A7880C3EF9BEE9AED99400DC3E6
:201D2000EF9BFFEE9AFEED99FDE842F0DC23ACF0D0E0FFD0E0FED0E0FDAB8220E7101BEB08
:201D400060BAEC2CFCEF33FFEE33FEED33FD021E71E803F830E705C0F075F000EF2FFFEE48
:201D600033FEED33FD40B830E7C280AA74F8CC6480CCC86480C8F58204604FC3EB9FF5F062
:201D8000EA9E42F0E99D42F0E89C45F0603C501DE5825FFFE582D313CB5BCBF42B5582FB1B
:201DA00050280ABA002409B9002008801DE5825BFBE582D313CF5FCFF4C3132F5582FF5016
:201DC000090EBE00050DBD00010CC3EB9FF5F0EA9E42F0E99D42F0E89C45F06007CC48205A
:201DE000E701B3EC2275F020800E75F010800575F0087D007E007F003392D530D503122270
:201E000029EC334010EF33FFEE33FEED33FDEC33FCD5F0ED22E5F0247EA2D513CC92E7CDCB
:201E2000CEFF22EDD2E7CD33EC3392D524814006E4FFFEFDFC22FCE4CFCECDCC24E0501125
:201E400074FF80EDC3CC13CCCD13CDCE13CECF13CF0470F030D5DE022229E9D2E7C933E80D
:201E600033F892D5EDD2E7CD33EC33FC5002B2D522EC30E7100FBF000C0EBE00080DBD0089
:201E8000040BEB6014A2D5EB13FCED92E7FD2274FFFCFDFEFF22E480F8A2D574FF13FC7D81
:201EA00080E480EFBB010689828A83E0225002E722BBFE02E32289828A83E49322BB010BE0
:201EC00089828A83F8E0C828F0E822500327C722BBFE07F8E3C828F3E8228A838982E493AE
:201EE00022BB010CE58229F582E5833AF583E0225006E92582F8E622BBFE06E92582F8E2C6
:201F000022E58229F582E5833AF583E49322BB010989828A83F8E028F022500327F722BBA8
:201F2000FE05F8E328F3228A838982F8E4932822BB010FF8E58229F582E5833AF583E028C9
:201F4000F0225009C58229F8E58226F622BBFE09C58229F8E22582F222F8EA2583F583E957
:201F6000932822BB010689828A83F0225002F722BBFE01F322F8BB010DE58229F582E5832E
:201F80003AF583E8F0225006E92582C8F622BBFE05E92582C8F222EF8DF0A4A8F0CF8CF0B2
:201FA000A428CE8DF0A42EFE22BC000BBE0029EF8DF084FFADF022E4CCF875F008EF2FFF8A
:201FC000EE33FEEC33FCEE9DEC984005FCEE9DFE0FD5F0E9E4CEFD22EDF8F5F0EE8420D232
:201FE0001CFEADF075F008EF2FFFED33FD4007985006D5F0F222C398FD0FD5F0EA22C5F088
:20200000F8A3E028F0C5F0F8E582158270021583E038F022A3F8E0C5F025F0F0E58215821B
:2020200070021583E0C838F0E822BB010A89828A83E0F5F0A3E022500687F009E71922BBC1
:20204000FE07E3F5F009E3192289828A83E493F5F074019322BB0110E58229F582E5833A79
:20206000F583E0F5F0A3E0225009E92582F886F008E622BBFE0AE92582F8E2F5F008E222F9
:20208000E5832AF583E993F5F0A3E99322BB010789828A83021FFE500B09C5F027F7C5F0AE
:2020A0001937F722BBFE0D09F8E325F0F3C5F019E338F322F889828A8374019325F0C5F025
:2020C000F8E4933822BB010A89828A83F0E5F0A3F0225006F709A7F01922BBFE06F3E5F030
:2020E00009F31922EF2BFFEE3AFEED39FDEC38FC22C3EF9BFFEE9AFEED99FDEC98FC22E826
:202100008FF0A4CC8BF0A42CFCE98EF0A42CFC8AF0EDA42CFCEA8EF0A4CDA8F08BF0A42D66
:20212000CC3825F0FDE98FF0A42CCD35F0FCEB8EF0A4FEA9F0EB8FF0A4CFC5F02ECD39FEFB
:20214000E43CFCEAA42DCE35F0FDE43CFC2275F008758200EF2FFFEE33FECD33CDCC33CC42
:20216000C58233C5829BED9AEC99E58298400CF582EE9BFEED9AFDEC99FC0FD5F0D6E4CE4D
:20218000FBE4CDFAE4CCF9A88222B800C1B90059BA002DEC8BF084CFCECDFCE5F0CBF978D0
:2021A00018EF2FFFEE33FEED33FDEC33FCEB33FB10D703994004EB99FB0FD8E5E4F9FA226F
:2021C0007818EF2FFFEE33FEED33FDEC33FCC933C910D7059BE99A4007EC9BFCE99AF90FD7
:2021E000D8E0E4C9FAE4CCFB2275F010EF2FFFEE33FEED33FDCC33CCC833C810D7079BECE2
:202200009AE899400AED9BFDEC9AFCE899F80FD5F0DAE4CDFBE4CCFAE4C8F922EF5BFFEED7
:202220005AFEED59FDEC58FC22C3E49FFFE49EFEE49DFDE49CFC22EB9FF5F0EA9E42F0E9AE
:202240009D42F0EC6480C864809845F022EB9FF5F0EA9E42F0E99D42F0E89C45F022E86040
:202260000FECC313FCED13FDEE13FEEF13FFD8F122E8600FEFC333FFEE33FEED33FDEC3313
:20228000FCD8F122BB010789828A830222BE5005E9F8022592BBFE05E9F802259E89828AB2
:2022A000830222CABB010789828A830222E65005E9F80225AABBFE05E9F80225B622E0FC47
:2022C000A3E0FDA3E0FEA3E0FF22E493FC740193FD740293FE740393FF22E0F8A3E0F9A3B8
:2022E000E0FAA3E0FB22ECF0A3EDF0A3EEF0A3EFF022A8828583F0D083D0821223091223A9
:2023000009122309122309E473E493A3C583C5F0C583C8C582C8F0A3C583C5F0C583C8C546
:2023200082C822A42582F582E5F03583F58322E0FBA3E0FAA3E0F922F8E0FBA3A3E0F9253B
:20234000F0F0E582158270021583E0FA38F022EBF0A3EAF0A3E9F022BB010789828A83029E
:20236000232F5005E9F80225C2BBFE05E9F80225D489828A830225E6BB011A89828A83D06F
:20238000F0D0E0F8D0E0F9D0E0FAD0E0FBE8C0E0C0F002234F5016E9F8D083D082D0E0F966
:2023A000D0E0FAD0E0FBC082C0830225CBBBFE16E9F8D083D082D0E0F9D0E0FAD0E0FBC03E
:2023C00082C0830225DD22BB010DE58229F582E5833AF58302232F5007E92582F80225C20C
:2023E000BBFE07E92582F80225D4E58229F582E5833AF5830225E6BB0120E58229F582E5A4
:20240000833AF583D0F0D0E0F8D0E0F9D0E0FAD0E0FBE8C0E0C0F002234F5018E92582F885
:20242000D083D082D0E0F9D0E0FAD0E0FBC082C0830225CBBBFE18E92582F8D083D082D0B4
:20244000E0F9D0E0FAD0E0FBC082C0830225DD22D083D082F8E4937012740193700DA3A342
:2024600093F8740193F5828883E4737402936860EFA3A3A380DF8A838982E473EC8EF0A46B
:20248000CCC5F0CCCDF8EFA4CEC5F02DFDE43CFCE8A42EC8C5F03DFDE43CFCEFA4FFE5F0DA
:2024A00028FEE43DFDE43CFC22E709F60870FA8046E709F20870FA803E88828C83E709F071
:2024C000A370FA807EE309F60870FA8076E309F20870FA806E88828C83E309F0A370FA80E7
:2024E0006289828A83E0A3F60870FA805689828A83E0A3F20870FA804A80D280FA80C68046
:20250000D4806580F28031801080A680EA809A80A880DA80E280CA803189828A83ECFAE4E4
:2025200093A3C8C582C8CCC583CCF0A3C8C582C8CCC583CC70E9800D89828A83E493A3F656
:202540000870F9ECFAA9F0EDFB2289828A83ECFAE0A3C8C582C8CCC583CCF0A3C8C582C8DF
:20256000CCC583CC70EA80DD89828A83E493A3F20870F980CE88F0ED2402B4040050C4F595
:2025800082EB2402B4040050BA23234582239024F973E6FC08E6FD08E6FE08E6FF22E2FCF0
:2025A00008E2FD08E2FE08E2FF22ECF608EDF608EEF608EFF622ECF208EDF208EEF208EFD5
:2025C000F222E6FB08E6FA08E6F922EBF608EAF608E9F622E2FB08E2FA08E2F922EBF20898
:2025E000EAF208E9F222E493FB740193FA740293F92227BA27C627CC27D227D827E42B383B
:20260000C0647426C0E0C082C08375640AE5FF54CF4490F5FF22C0647426C0E0C082C08320
:20262000756420E5FF54CF4490F5FF22C0647426C0E0C082C083756436E5FF54CF44A0F5DE
:20264000FF22C0647426C0E0C082C08375644CE5FF54CF44B0F5FF229080000226169080E2
:202660001002261690801C02261690802802261690802E02261690803A02261690804802CE
:202680002616908056022616908064022616908072022616908B2602261690A01B022616E0
:2026A000908FA502261690878802261690B05002261690B80102261690B8F602261690C713
:2026C000E902261690C84602261690CFDB02261690D64902261690D91702261690D9400229
:2026E000261690B52602261690B62C02261690DBC302261690DC1402261690C1E3022616A9
:2027000090C26602261690C17202261690A88802261690A8DB02261690B08002261690DD08
:202720005002261690D65802261690DE4102261690DE4F02261690DEFC02261690DFC90245
:20274000261690E02202261690E45102261690E54902261690DBF002261690E54F022616D3
:2027600090D11E02261690E070022616908F6B02261690900C02261690DC0902261690DB2E
:20278000CC022616908C7D02261690D99002261690DED502261690D41302261690D6410242
:2027A000261690D48D02261690A77102261690E55202261690E56D02261690E5A20226164E
:2027C00090E67A02261690C60C02261690E77302261690E78B02261690CEA502261690E111
:2027E000F302261690E49602261690A8F602261690E83702261690E84C02261690E85E022D
:20280000261690D4F702261690EAFC02261690D2DF02261690D2FA02261690D1D3022616A4
:2028200090CFA502261690D7B602261690E2DF02261690D7B402261690EB1602261690CFE5
:202840000F02261690D34602261690D26802261690EC0202261690EC4502261690D4B1026A
:20286000261690D14002261690D18202261690ECBF02261690B48302261690ED6C02261677
:2028800090D0D402261690ED7A02261690EDAB02261690EDC602261690EDE402261690EE8D
:2028A0003702261690EE4102261690B7BF02261690A79402261690EE9702261690CA70023A
:2028C000261690CA5402261690CF7702261690E09702261690E06802261690E06C02261647
:2028E00090E09402261690E23F02261690EF2C02261690EF3202261690CB7902264290CB36
:20290000AD02264290CE1F02264290D22002264290D2C0022642909FA202264290CDF802AF
:20292000264290D47902264290CF8402264290D314022642909E8F02264290D57C02264248
:2029400090C9B702264290D74702264290D74802264290D74902264290A0AF02264290B920
:20296000470226429080000226429090EC02264290D82802264290D9BC02264290845A02BD
:20298000264290DADD02264290DBBC022642909C1A02264290B25802264290B21702264216
:2029A00090C25E02264290E25202264290E2EE02264290E42902264290E483022642908A83
:2029C000F102264290E50202264290E5E8022642908F1A02264290C4DB02264290E78002BF
:2029E000264290E91F02264290C9CD0226429081D802264290DA3602264290E9A7022642F6
:202A00009091CC02264290EA9402264290E5E502264290A0E002264290DB8C02264290EACE
:202A20009C02264290D81802264290E133022642909B1402264290EAA302264290EB9B0250
:202A4000264290EBAB02264290EBE702264290EBEE02264290C7C002264290C9B5022642E6
:202A600090C5530226429092E202264290AD6702264290E86702264290C01702264290E539
:202A80009F02264290B27302264290E3E902264290E56C02264290E6A202264290E6D20231
:202AA000264290E60B0226429099AC02264290EB0B02264290B92D02264290E7D4022642FF
:202AC00090ED1B02264290AC6F02264290DA3902264290A59302264290ED2702264290A35F
:202AE000E302264290DA3C02264290B09202264290DAD702264290BD2102264290DADA0274
:202B0000264290854602264290C2E702264290B57102264290B01602264290E39802264290
:202B200090AD5D02264290EFC902264290C99F02264290C16702264290F30102264290A736
:202B40009C02264290F33402264290F48F02264290F6AB02264290BDFA02264290F72302D9
:202B6000264290CAC302264290F16C02264290F1B102264290F24602264290F787022642C9
:202B800090F79402264290F81A02264290CCB002264290CFFB02264290BDE602264290DF5E
:202BA000A102262C90DA4B02262C90BA7502262C90E0D902262C90CA2F02262C90B108023F
:202BC000262C90942F02262C90D61102262C90E0E602262C90E0F002262C90E0F202262C1D
:202BE00090B8CE02262C90E08902262C90B87502262C90B8E602262C90B92302262C90E15A
:202C00007102262C90E41802262C90808402262C9086F902262C90D70402262C90CD4D0259
:202C2000262C90DFE902262C90D63102262C90B8C402262C90E48E02262C90985702262C22
:202C400090828702262C90BA3802262C90AB5402262C90841502262C90DAD702262C90E547
:202C60001402262C90D93102262C9080F602262C90E53302262C90E53602262C90E53D02F5
:202C8000262C90BF9602262C90B0B202262C90E55102262C9084EF02262C90B11402262C49
:202CA00090E57002262C90B04902262C90A11502262C90D74302262C90E65E02262C90E8C6
:202CC000DF02262C90D96902262C9080BF02262C90E75202262C90E6D902262C90E71C0223
:202CE000262C90E79602262C90E70402262C90B89A02262C90838C02262C90D46502262C0C
:202D000090EA4102262C90D37802262C90A34F02262C90A38202262C90EABF02262C90D9A0
:202D20002502262C90D92B02262C90D74C02262C90D75B02262C90EAFF02262C90EB0502C6
:202D4000262C90800002262C90EB0B02262C90804202262C90EB2E02262C90DC9802262CE8
:202D600090EB5102262C90DC8002262C90EB5802262C90DC1D02262C90EB5F02262C90DC55
:202D80006D02262C90EB6602262C90EB6D02262C90EBB202262C90931F02262C90900002C8
:202DA000262C90935A02262C90EC0202262C90EC2202262C90EC2F02262C90EC5602262C07
:202DC00090DCBA02262C90DA2F02262C90E9EE02262C90EA3602262C90DAB202262C90DBF2
:202DE0003002262C90DC3002262C90DC0102262C90DBA702262C90EC6302262C90A5AC0222
:202E0000262C90A57302262C90A1E702262C909F2702262C90D84F02262C90AEA502262C0C
:202E200090B03A02262C90EDB402262C90EE3002262C90C55502262C9093FD02262C90EF4C
:202E40004A02262C90DEBB02262C90DF0D02262C90A12402262C90986D02262C90A127029B
:202E6000262C90DCF702262C90DDF102262C90F00402262C90DE6402262C90DD5302262C85
:202E800090AF1802262C90DA1D02262C90AA7302262C909AA002262C90F09302262C908016
:202EA0008F02262C90809202262C90B23002262C90F2A402262C90B22A02262C908FFF0219
:202EC000262C90D70002262C90985002262C90BE4C02262C90BF0802262C90BFA102262C3C
:202EE000908E2502262C90868302262C90B18002262C90987002262C90998602262C908A30
:202F0000D602262C90F27D02262C90BCF702262C90BAE502262C90ED7202262C90EE38021F
:202F2000262C90A12702262C90EE8B02262C90E67902262C90EEF602262C90A12E02262C78
:202F400090D0B302262C90D56A02262C90B8A302262C90F37A02262C90F39902262C90D483
:202F6000F902262C90D70102262C90C9DF02262C90D0B902262C90870502262C908A4F0274
:202F8000262C90F55F02262C90F56402262C90B45502262C90F57002262C90F57502262CE6
:202FA00090F5B402262C90EF5F02262C90F5E202262C90F68302262C90F6B702262C909B7E
:202FC0002202262C908FF202262C90D5F102262C90F80602262C90F86702262C90F88B0232
:202FE000262C90EF8002262C90F8A602262C90F8DD02262C90D6C902262C90F93A02262C57
:2030000090F94902262C90C6EA02262C90F95102262C90F95602262C90FA2802262C41024C
:20302000B200410415060114004104140141041301C112011A00011700413F620042334514
:203040000101413347004233430000413291004232960000423288000044328D00000000EE
:2030600041334EFF41333F00016000413F2200413F2400413F1800C113413F1A00423F1B93
:203080000000413F1D00413F1E00413F1F00C114C115C121C118C1094134160041347CFFAB
:2030A00041347400C108C10741347D0041347E0041347501C10B41341500C10F013000C1AE
:2030C0000CC10D41488500C13B43451E00000041451D00414521004141450041414600414C
:2030E000460200453D1D007F120000453D14007F170000C144413F73004543680000000044
:203100000041436D004143670041436E00443F82FFFFFFFF483F890000000000000000428E
:203120003F870101413EE200413EEB00413EEF00413EEE00413EEA00413EE500423EE300F1
:2031400000423EF100004133A8004133A1004133A30041341100606633AA0000000000008D
:2031600000000000000000000000000000000000000000000000000000000000000000004F
:2031800000000000000000000000000000000000000000000000000000000000000000002F
:2031A00000000000000000000000000000000000000000000000000000000000000000000F
:2031C000C1CA413413FE413414FE41335500424475FFFF44447800000000C1D041489200E9
:2031E00043447D00000041448200434702000000414705004135F3004935634C6966656C75
:20320000696E650052356C4B65793120766961204C6966656C696E650052357E4B6579321D
:2032200020766961204C6966656C696E6500493593427574746F6E20310049359C427574C3
:20324000746F6E203200433F48000000413F5000433F51000000414386FFC119C11B414618
:2032600038204146360141276000412511004124FB00413DD701423DDE0000413DC800415F
:203280003DCB0041483000C15C42457E0000414582004144B400413EA895C1A8C127414775
:2032A000C3004147C400413E3700413E4000423E350000413E4E00413E4700C1A9C1AA412C
:2032C000366F004435F4000000004435F80000000041362C3C42419A000042419200004218
:2032E0003BFA0000E00C0260DE0086088400030084030104364144D6FF4144D503C1E841F5
:2033000044D2004144D300412C06FF422BF80000412C07FFC16F493B7A4C6966656C696E04
:203320006500413B8400413B8301C1F042485A9403413E5801413E5700443E4F088494035A
:20334000443E5318002000413CD728563CB10000000000000000000000000000000000FFA2
:20336000000000004134CDFF413549FF41355DFF41355EFF41355C004135500041355B0040
:2033800043355500000041355A0043354A00000041354F004135590042355F00004235519C
:2033A0000000423553000041296600412A270041281300C12CC12B412811FF4127C90041A1
:2033C0002967024129B3FF4129A100413674004136C6FF6050367501030300000505003071
:2033E0000605010030060007010000020303000002010030060306003006030100300601C8
:203400000100300601020200000008040000040405000000040530120005000000FF03FE07
:203420000000FFFFFE30005936CA0207D0300C0307D0300C050014300C0107D0300C040768
:20344000D0300C0090301EE47E0193700122A3FF543F30E509541FFEE493A360010ECF5489
:20346000E0B4E03AEFFAEEF9E493FBA3E493FEA3E493FFA3E493FDC083C082C001C002C04C
:2034800006C007122772D007D006D002D001D082D083A30FEF70010EDADAD9D880A954C0FD
:2034A00025E060105005A3DFFD809CA3A3A3DFFDDEFB8093A3A3DFFD808D75819C75FF03BE
:2034C000759E02122620023B1402362490301EE47E019360F4A3FF543F30E509541FFEE402
:2034E00093A360010ECF54E0B4E00EEFFAEEF9A3A3A3A3DAFDD9FB80D654C025E0604B5011
:2035000026E493A3F85407240CC8C333C4540F4420C8834004F456800146F6DFE480B00115
:2035200002040810204080E493A3FAE493A3F8E493A3C8C582C8CAC583CAF0A3C8C582C830
:20354000CAC583CADFE9DEE78085E493A3F8E493A34003F68001F208DFF40234CF90475E10
:203560001222BE7810EC4D4E4F70047CA57DA5C3EC13FCED13FDEE13FEEF13FF5010EC64D9
:20358000CCFCED644CFDEE644EFEEF64CEFFD8DF90475E1222E6EE547FFE2290475EEEF011
:2035A000EFA3F0A374A5F0A3F022C2D5E830E70FB2D5E4C39BFBE49AFAE499F9E498F8EC71
:2035C00030E717B2D51235E012218AE4C39BFBE49AFAE499F9E498F8800312218A30D50D61
:2035E000E4C39FFFE49EFEE49DFDE49CFC22789CE4F6D8FD9000007F007E10E4F0A3DFFC38
:20360000DEFA904FFFA3E583C394204011FEAF829020000E0FE48002F0A3DFFCDEFA122641
:20362000200234CC2232EF90362F93902600730A20364CE564FF22EFF56422E4FFFE121EE3
:20364000A4600C0FEF70010E09E970F20A80EF225E2527328171608E2C2B70867273855922
:203660007A5AEF825E2527328171608E2C2B708672738559987A5AEF825E985AEF828672A3
:203680002527328171608E2C2B707385597A200382015A01710532022001270427052B01EB
:2036A000200120010000FF36980452657472616E736D6974000000000000000000000000CE
:2036C00000000000000000000000000000000000000000000000FF36A001436F6E74726F9F
:2036E0006C3A4B6579310000000000000000000000000000000000000000000000000000CA
:20370000000000000000FF36A201436F6E74726F6C3A4B657932000000000000000000005B
:2037200000000000000000000000000000000000000000002BC82BCE2BD40000FF0000009F
:20374000FFFFFF0001FE00FF0002FD00FFFF03FC0000FF04FBFF00FF0000FF00000080FFF8
:20376000800000FFFFFF0001FE00FF0002FD00FFFF03FC0000FF047C8000FF04FBFF00FFD7
:20378000006300000F0F000000000000000028F828FE2904291C00000000290A290A291051
:2037A00000000000292229222928292E000029162934293A2946294C295229582682268896
:2037C000268E2676267C2658265E2664266A2670006401900384076C08340001001E001EDD
:2037E000000000000000000000000002001E001E00C800000000000000000001000300C8F7
:20380000006401900384076C08340001001E001E001E26CA26D0000026CA26D0000026CA66
:2038200026D0000026A6FF000000FF000000FFFF6100FFFFFFFF00FFFFFF0000CCCC0000D8
:20384000004C63002000000A0A4C63002000004B4B5C63002100002020016300004000005C
:20386000004C630120000064004C000120000064004C63000003030101FF3841FF382600B7
:20388000000063001201000202000008580600020000000000010902000000010080320483
:2038A000030409A280CACF0998445CAD550641469503862B4A0000000000050000060000CF
:2038C000001000002428800000242080000011382100004428800000442080000034382181
:2038E00000003F241E16110E0B09070504030201F0C8A7917767604638353230242220142B
:20390000000101020203030404050506060707000000000000000000000000000000002F40
:203920009A2FA02FA62FAC2FB22FB89805000AFFFFFF32FFFFFF32FFFFFF32FFFFFF32FF44
:20394000FFFF0AFF00002A5A0000000000000000000000000000000A00000258000002581E
:20396000000E08F8000E0F3800000000020C00003F3F3F0404042EB02EB62ECE2ED42EDA45
:203980002EE02EFE2F042F0A2F102808280E2814281A2820282628322844D26200010002CB
:2039A0000004000800100020004000802FD02FD62FDC2FE22FE82FEE2FF42FFA00002C70CF
:2039C0002C762C7C2C82000030003006300C30123018822D1C1613111010270C27122718F3
:2039E000271E2F822F882F8E2F940003010206040529DC29E229E82E262E2C2E322F70E4D3
:203A0000F97D0CAC0109EC90183E93FC0FEFAA0670010E14F5828A83ECF0DDE77F03228F75
:203A2000828E83E4F0A37404513274365132A3E4F022F08F828E83A3A32290485EEFF0909C
:203A40003FDCE0B40110C2ED7A48795E9042125157122B6ED2ED227B0112234F7A3F79DD37
:203A600022903FDCE0640170287B017A3F79DD122B7AEF701C90485FF0C2ED7A48795F90DF
:203A8000417E5157122B74D2ED90485FE0FF122B44227A2B7B4A12F307903FDC7401F0FB15
:203AA00051BC7E3A7F619002BAE0FCA3E04C700A9002BAEEF0A3EFF0D322C3227A3F79E553
:203AC0009043A212234F9043A57401F0A37405F07A3F79DD022B687F0151EB903FDCE0B465
:203AE00001047B0151BC22EFF07F01EF60087102E4FDB19380091228C8D10FE433FF227FA6
:203B000001229002B4E075F0AA9002BF122323AF82AE832275FF0275E404E4F5E4C2117548
:203B2000FF02901215E0603CE5E65403640170341228981258114020901222E0600DE01474
:203B4000F070081235EEE4901215F0901215E0700261DC1250AD61DC1235EED211E490120D
:203B600015F080781235EE1261D69002B3EFF0901200E0B47A14901214E0B49C0D9002B3AA
:203B8000E0FF64056004EFB4032EE49002BCF09002BCE0FFC394405013E42FF582E43412A8
:203BA000F583E4F09002BCE004F080E3901200747AF0901214749CF0122B5C7A1279107FD1
:203BC00001126AA87A1279117D017F21122B567B017A1279127D017F22122B5612289E12CA
:203BE00061D61228929002B3EFF01227FC1228869002B3E0FFB40602800C3011047F0280F7
:203C0000059002B3E0FF122BA4EF24FFB3923B75FF0253E6BF9002B3E064016005E4901225
:203C200015F0125D0D1228A4124A47901215E0700F203B0C122BAA7B017A34798012283889
:203C400090121DE030E00280033011047F0151EBD2AF303B7B122748122796122BB0122B4E
:203C60005040F29002B2E060411228C2EF7005126B004036E51470FCE51520E502D10F1252
:203C8000275AEF70FA12619B500512618750047F01D17E9002B2E0B40204E4FF80099002EE
:203CA000B2E0B403057F011250CA1228BCE51530E1A312608C94024002E4F0E51520E506B7
:203CC00071027D01B1939002BC7105126C508085125CB6125C845003124AA29002B2E0602D
:203CE0005D903416E070571228C2EF7005126B00404CE51470FCE51520E50990121DE02051
:203D0000E002D10F12275AEF70FA12619B500512618750047F01D17E9002B2E0B40203E4B4
:203D200080189002B2E0B403047F01800E9002B2E0B4050A9012157401F0FF1250CA122797
:203D400048122796122BB69002B0E070051228BC8015125CF2FF9002B0E0FEC3EF9EC39411
:203D6000064002E4F0D2AD12180AE51530E11C12608C94024002E4F0E51520E50671027DAE
:203D800001B1939002BC7105126C50122874125CFB81D0900439EEF0A3EFF0E514706F12CD
:203DA00057EF5004C236D138900439E0FEA3E08E11F512AE11AF127DAA126332E4F5FF75F9
:203DC000D901F510E5155421602CE51530E505E4FF12560FE490043BF090043BE004F01243
:203DE0005892EF600990043BE0C3941040EB7F02122B9E5315DE900413E07F00B403027F60
:203E0000011255B3D236D138D2EBA21092ED22E51470231257EF5004C236D13812586E1243
:203E20005603E5D120E0FB4315205315FEE4F510A21092EDD322C322904865E5F4F0E0546C
:203E40007FF5F47F827E00124F54124F0E5005E5FC20E6F6303608904865E04480F5F412DB
:203E60004F50124F0E5005E5FC20E6F675FF01E5D520E702C322E5F4D330E601C322904865
:203E800063EFF0903F63E064027023F1ED904863E07FAB60027FB9D1B812435D904863E0C2
:203EA000903F62F070047F1EDFFEE4FFF1A1221222BE780812225EE4E5C820E2FB8FEB222E
:203EC0007F01F1A19048627401F0904862E06031F1E7F14C904862EFF012435DF13B903FAB
:203EE00056EFF012435D904862E05401126CC460D9A3E0F460D4EF30E7D0E4904862F080E2
:203F0000C9F1F17F9FD1B8F14C903F57F14A903F5CF14A903F5DF19A903F55E0F4601BA37E
:203F2000E0F46016903F5CE0FD541F240FA3F0EDC41354074480903F5CF022F1F17FD7D1CD
:203F4000B87FFFD1B8F150903F55EFF07FFFD1B8E5C820E2FBAFEB227F01F1A1302F15F17A
:203F6000E7F14C904864EFF012435D904864E020E002C22F302F19F13B903F56EF126CC447
:203F8000600BA3E0F46006EF30E702C22F12435DE4FFF1A1A22FE433FF22EFF012435DE43B
:203FA000FFEFB4010443FE202253FEDF229045B31222E612463CF158EF600512464B80F699
:203FC0001246AF600A9045B31222BE7810D1B49045B3D1AF9045B312473FF14C9045B7F107
:203FE0009A9045B7E0FF22F1F17F05C1B87F01F1A1903F5AE0122450401404401C144021F1
:2040000015402617403630403B344040364045370000402E5357EF855780802F5358EF801B
:20402000085358DF800353587F855890801D5359DF8559A08015535AFE800D535AEF80083D
:20404000535ABF8003535A7F855AB07F0CDFFE22C0E0C0F0C083C082C0D075D000C000C002
:2040600001C002C003C004C005C006C007904860E5FFF075FF02E5D430E60975D44031CEC2
:20408000600231E175FF02E5D430E50C75D4209044F531D1600231E175FF02E5D430E4135E
:2040A00075D4109044F731D160098F828E837F0512247A75FF02E5D430E30975D40831CE80
:2040C000600231EA75FF02E5D430E20C75D4049044F531D1600231EA75FF02E5D430E11A27
:2040E00075D402124A39EF60119044F731D1600431D88006124A07124A3175FF02E5D43071
:20410000E01375D4019044F731D160098F828E837F0712247A75FF02E5D530E40F75D51027
:204120009044F731D16005F1CF12247A75FF02E5D530E11375D5029044F731D160098F82F6
:204140008E837F0612247A75FF02E5D530E00D75D5019044F731D16003126C3675FF02E542
:20416000D530E21375D5049044F731D160098F828E837F0A12247A75FF02E5D530E7137597
:20418000D5809044F731D160098F828E837F0812247A75FF02E5D530E61375D5409044F78D
:2041A00031D160098F828E837F0912247A904860E0F5FFD007D006D005D004D003D002D063
:2041C00001D000D0D0D082D083D0F0D0E0329044F3E0FEA3E0FF4E228F828E837F020224C7
:2041E0007A8F828E837F0102247A8F828E83E4FF02247A51E112234F90411C12232F904186
:204200001F1263209041181222BED1C3500241A1903F5FE0903F5EF1EBE4FCFD9041181258
:2042200022DA12221C904121F1D66035904121F1C8903F5FE09FFF903F5EE09EFE904121F2
:20424000F0A3EFF090411FB1D35003126AB451A312232FE94A6004B1CA803D7E007F008051
:204260003790411F31D16037903F5E126BF5400A904121ECF0A3EDF0800D90411FE0FFA348
:20428000E0A3CFF0A3EFF051A312232FE94A6004B1CA80047E007F0090411DB1B580C2D306
:2042A00022C32290411C12232F904121E0FFA3E090425CCFF0A3EFF09041181222BE51EBCC
:2042C000904121E0FEA3E0FFC3904120E09FF090411FE09EF09041181222DAE4FCFD122005
:2042E000E49041181222E690411C229042551222E690425912234FD13C123F58EF6004D1FE
:204300004B80F6714E123FF1903F58E0FFD1B9600B9042551222BE7810123EB49042551202
:204320003EAF9042551222BEE4801790425CF1506015904259F1DD6007904259F1468001D5
:20434000E4FF123EB880E4715DE4FF023FA17F01123FA1D22F123FF17F06123EB8F1BBEF9E
:2043600070FB903F5CE0F4600A9048617406F0B1C270FC903F5AE0122450439604439E1486
:2043800043A31543A81743B83043BD3443C23643C737000043B0435710855780802F435802
:2043A0001080084358208003435880855890801D4359208559A08015435A01800D435A105B
:2043C0008008435A408003435A80855AB0904861740CF0B1C270FC227A3F795A7F03126A15
:2043E000A87A3F79637D017F08122B567A3F79607F09B1BB7A3F795E7F0BB1BB903F5E317E
:20440000D16006BEFF1BBFFF18903F63E024FD6003047004B1DD8009903F5EE4F0A374403A
:20442000F0903F63E024FD6003047008903F5B7403F08006903F5B7402F0903F5AE0122494
:2044400050445D04446814447015447817448E30449634449E3644A6370000448375FF0186
:204460005353EF8553FD804775FF015354EF800E75FF015354DF800675FF0153547F85547D
:20448000C9802C75FF015355DF8555CA802175FF015356FE801675FF015356EF800E75FFA5
:2044A000015356BF800675FF0153567F8556CB715D7F11B1A7E4FF123E7E123EC0903F582C
:2044C0007402F0903F5CE0247F6009047015B1AD740A8006F173B1AD7458F0903F5B740355
:2044E000F0B1DD903F5DE0F46002A185903F60E0FEA3E0FF64104E7006903F5D740EF0EF62
:2045000064204E7006903F5D740FF0EF64404E7006903F5D7410F0EF64804E7006903F5DFA
:204520007411F0E4B5070AEEB40106903F5D7412F0E4B5070AEEB40206903F5D7413F0E436
:20454000B5070AEEB40406903F5D7414F0E4B5070AEEB40806903F5D7415F0E4B5070AEEAE
:20456000B41006903F5D7416F0E4B5070AEEB42006903F5D7417F0E4B5070AEEB440069090
:204580003F5D7418F0D13C123F58EF6004D14B80F6714E123FF17F01123EB87F03123EB855
:2045A000715DE4FF023FA1EF4420F5FE227F10B1A7903F5822EE8FF0021FFE7B017D020247
:2045C0002B56904861E014F0E022904121E0FEA3E0FF22E0FCA3E0FDD39FEC9E22903F5E20
:2045E0007401F0A3E4F0229045B81222E69045B81222BE123FAD9045BCE06F603DD13C12FD
:204600003F58EF6004D14B80F6714E123FF1903F58E0FFD1B9600B9045B81222BE78101209
:204620003EB49045B8123EAF9045B8F13F9045BCE0FF123EB8123F9CD322C32275FF02E5A5
:20464000E430E10675E40675E40322E51530E20FE51520E50AE51530E0057F01123AEB2276
:2046600090425E1222E690426212234FD13C123F58EF6004D14B80F6D1AF600B90425E1270
:2046800022BE7810123EB490425E123EAF90425EF13F904265F150600F123F4C904262F176
:2046A000C1904263F13880EA715DE4FF023FA17F01123FA1123FF17F03123EB8903F5BE096
:2046C000640222903C891222E6903C8D12234FE4903CB0F0D3903C91E0941E903C90E09424
:2046E000004001227B017A3C7992903C90126B8C903C891222BED160903C8D12232FE94A4D
:20470000600B903CB0E0F582F160FF80027F00903CB0E02492F582E4343CF583E06F600204
:20472000C322903CB0E004FFF0D3903C91E09F903C90E0940050C122E475F001021FFE1218
:2047400022BEE4023EB8E475F001122338021EA474FFF5F012201445F02212232F1E8E829B
:20476000758300021EE1D13C123F58EF6004D14B80F622903F55E020E01A123FED7F3D1259
:204780003EB87F2A123EB87F80123EB87FA6123EB8123F9C22FEAF017B007A0079929044AD
:2047A000FE7404F09044FBF1E4C0079044FB12232F9044FE126A39D007C160E5C85404FF72
:2047C0002212232FEF021F63E0FEA3E0FFC3228F828E837F0322EEF0A3EFF04E2212232FA1
:2047E000EA494B2212234FE4FCFD2224FFFFE034FFFE2275FF028FD675FF02AF058FD77F57
:2048000001EF6003D2ED22C2ED22E475FF02AFD4CDEFCD75FF02AFD5EFFCEDCEECCEFF22B2
:2048200075FF02EFF452D475FF02EDF452D52290467612234F90467911A2943F4003743FBE
:20484000F075FF02E5CD30E105E4F55B8003755B01E55B6037E5FD255C04543FFFE5DD54BC
:204860003F6F6028904679119B502190467612232F855C82124760AEFD3160543F248EF554
:2048800082EC3406F583EFF0055C80C5E55B6008E5FD255C543FF5FDAF5C22E0FFE55CC3D3
:2048A0009F22EDF0E4F55CEDD32290467E12234F90468111A2943F4003743FF075FF02E54D
:2048C000CB255C543FFFE5DB543F6F6020904681119B5019ADCB314A543F244EF582EE34BB
:2048E00006F583E090467E3152055C80D2E55C600625CB543FF5CBAF5C2290468212234FDD
:2049000090468511A2941F4003741FF075FF02E5CC255C541FFFE5DC541F6F602090468578
:20492000119B5019ADCC314A541F24CEF582EE3406F583E09046823152055C80D2E55C60E3
:204940000625CC541FF5CCAF5C22ED255CFF7E00EF22FF12232F855C82758300EF021F75C0
:20496000FFE55CFDEE2DFD7C00ED2290467A12234F90467DEDF075FF02E4F55CEDD3941F35
:204980004003741FF075FF02E5CD30E205E4F55B8003755B01E55B6037E5C9255C04541F0D
:2049A000FFE5DE541F6F602890467D119B502190467A12232F855C82124760AEC93160542F
:2049C0001F24EEF582EC3406F583EFF0055C80C5E55B6008E5C9255C541FF5C9AF5C227562
:2049E000FF02E5DB543FFFE5CB543F6F7F0060027F012275FF02E5DC541FFFE5CC541F6FF3
:204A00007F0060027F012275FF0153CCFD43FB405127759E0143FB0975FF03859E9E75FF85
:204A200003859E9E7F012275FF0243D20175FF03225127E4F59E7F012275FF02AFD3EF7FF4
:204A40000030E6027F01221243D81228B61227F012274E9002B3E064017F0060027F0112D2
:204A6000285C1228621227C0126A90122760F1DAFE4FFDA3E0FC4DFDA3E0FB4D600BEE5F17
:204A8000FFEC5FFFEB5FF4700251A290121CE0FF540324B6F582E43402F583E06F9002B1C1
:204AA000F022E4FF123AEBEF603B51E651ED9002B6E0C394C040F37B017A0279B851EDF101
:204AC000DA5FFFA3E05FFFA3E05FF460EA90121DE030E0057F01123AEBE490121CF051E669
:204AE000E0FD122766227B017A0279B62290043F12234FC22EE4FF123AEBBF010A90043FD1
:204B000012232F710F922E7F01123AEBA22E22904123125BC8E9F09041291222F200000026
:204B20000190412D7401F0F5FFE5D554C070051257F75002C322E4F5FF53967F75FF017519
:204B4000D504F15875FF0143D508E4F5FF5394FBF5FF53847FF5FF7598FF904127E5F4F0D9
:204B600075F49C75FF01A3E5E4F075E4257B017A41792D125B9890412DE064016002813B9E
:204B8000F5FF9041267414F0904129916BFF78011222719041291222E6E5A730E1FB43A709
:204BA00002904129916BFFE5A730E005E47B018002E4FBFAF9F8EF4BFFEE4AFEED49FDEC23
:204BC00048FC9041291222E6904126E014F070B8904129916BFF781012225E7B6D7A4E7942
:204BE000C678411220FFEF2439FFEE3430B1F3E4FBFA7901F812218AEE547FFEE4FDFC120E
:204C00006BB3904129916BFFEB6FFFEA6EFEE8CDEFCDCCEECCECFF904123125A5DEF121F13
:204C200063904123125A5D900001ED121F7590120FE030E606E4F5FF75968075FF01E4F5D2
:204C4000D5904127E0F5F475FF01A3E0F5E41263C790412DE0B40103D38001C322E025E0FD
:204C600025E02401F582E43412F583E0FCA3E0FDA3E0FEA3E022903E1B1222E675FF0243B3
:204C8000E180125875F185903E301222F2002DC6C0E4F5FFF5A490120EF0A3F0903E2B7476
:204CA00002F0F1E2FFF595EF14601314601C24027027903E1B916BF100903E278016903EB4
:204CC0001F916BF100903E28800A903E23916BF100903E29E0903E34F01264F8903E34E051
:204CE000700FF5FFF59675FF0175D70975F418805B90120EE004F0903E2BE0126CBC903E2B
:204D000030916BFF903E2C1265AEC312224D500A903E2C916BFFA31222E6903E34E0FF1206
:204D20006379903E2AE0FFA3E0FDA23492321264A6A3916BFF9045BE1222E6903E2BE0FF67
:204D4000126505903E2B915DFF125BCFF1EA600281A27402F0F1E2F595E5F45407701D9041
:204D60003E301265A9B1E1780112225E903E2B1265991222E6EB915EFF125BCFF1EA70D5B0
:204D800075FF03759580125C19400343F420A23492331263D8903E30916B2420FFEE344E5C
:204DA000B1F3E4FB7A04F9F8B1E1780112225EC231125A7DE4F5FFE5BD54F84404F5BD9038
:204DC00012137401F07E127F01E4FDEF2DF582E43EF583E0FC901213E02CF00DEDB412EBF3
:204DE000221220FFE47B7DFAF9F812218AEF2401FFE43EFEE43DFDE43CFC2290440C12500B
:204E0000F39044127401F0C235F150F10E5005E5FC20E6F7F119BF0108E4F5FC75FC408012
:204E200007F119BF0202D322125C1290440DE0FF1265BA75FF0153D5DF53FAFB90440CE0B4
:204E4000FF12560F90440DE090440CB40808915D2452B1F08003915DFF125BCF90440EE004
:204E6000FF12661375FF0175FF03759B04F15075FC42E5FC20E104F10E40F490440FE0F0E8
:204E800075FF03E59B20E704F10E40F4E59B20E70D75FF03759B1F125875D235804FF107F6
:204EA000125B9890440DE0FD90120FE05D701C90440CE0FFF107125E5C90120FE0FF9044CE
:204EC0000DE0FEEF4E90120FF0B1BF1259687B017A447910125B7A500FC3904411E0942081
:204EE000904410E0940340E6F107125C2BF15F303502C101904412E0B40103D38001C32270
:204F0000FF903E2C0222E67B017A4479122275FF03E591C330E701D3227FFAF145E5FC302A
:204F2000E604F10E40F7E5FC30E6037F032275FF01E5D530E6037F0222E5D57F0030E70276
:204F40007F01227FC87E00F16875FF03439180227FE87E03F1A280F17F3FFEF168F14975F4
:204F6000FF03E59120E7FB2275FF03D3EF9402EE9400400874FE2FFF74FF3EFEEFF592EE49
:204F8000540FF59122F1D053DB7F75FF0175D5027F14F145F15FF1D043DB8075FF01E4F511
:204FA000D522904686126B3F7A467988125B7A5014904688E0FEA3E0FF904687E09F904666
:204FC00086E09E400A904686E0FEA3E0FFF1682275FF01438E1075FF01229002B6E0FFA395
:204FE000E02275FF03903E2BE022903E2BE0FF14F0EF2275FF0275E40475E40175E40222A6
:2050000075FF0275E404E4F5E4229004331250F390121DE05430600611F05002C32290046D
:2050200033E0B4040BA311729004337403F08025900433E06405701890121DE09004343072
:20504000E50611727F1F8004117AE4FF11E88005900434117A900433E09002B2F0900435DD
:20506000E0901222F01227AE9002BDEEF0A3EFF0D322E0FB7D017F018006E0FB7D01E4FF76
:20508000EB600875FF0153CDFD800675FF0143CD02ED600553FBDF800343FB20EF600775F3
:2050A000FF0243E1402275FF0253E1BF2290121DE07B027D0130E5087F0111807F1F8006F2
:2050C000E4FF1180E4FF11E87F0143FB1075FF0243E640EF600D75FF02E5E120E7FB43FBFB
:2050E0000D800343FB0E80FE75FF028FE32280F8A21122EFF0A3EDF0A3EBF02290475AEEE1
:20510000F0A311F3316FAC00AD01AE02AF03C006C00790475A319AD007D006D31222377EAA
:205120000050047F0180027F00C006C007316FD0E02FFFD0E03E90475AF0A3EFF053ECCFF0
:2051400090475A3186318F42EC75FF02EDF5AE75ED2075ED40A3E0600543EC80800353ECF6
:205160007F90475DE0600443EC402253ECBF2290475AE0FEA3E0FBAA06E4F9F87F807E38C0
:205180007D01FC0235AAE0FCA3E0FDEC540322C4F854F0C8E4C4540F4822E0C313FEA3E07F
:2051A00013FBAA06E4F9F822E4F5FFEFF5D8E4F5FF53D60FEE540F318F42D622900427127E
:2051C0006A28C2EBE51460026151E51530E202C322F1F75005C236123E38D103E5D120E049
:2051E000FBE4F510C211900428E05407C39403E494005022900430E0FF90042CE02FFFE468
:2052000033FED3EF9440EE648094804009431504A21092EDD32290042D12232FCFE9CF8AE0
:20522000118F12900430E0F516AE1131A890042912232F8B1C8A1D891E90042CE0F51F901B
:205240000427E0FCA3E0FD5460602A900431E0FF71D9715FFB7A00900425126CA47D1712D5
:205260001F97EF2BFFEA3EFEEF2414FBE43EFA7D027F016139900427A3E05407900414F031
:2052800075140890042912232F912490042CE0FFAD16B1A6900414E0640370247B01FD7181
:2052A0005C71B9985007716F7401121F0EE4F5FFF1C5715F2428FBE433FA7D03E4FF8079D3
:2052C000900414E06402701E715971B9984007716F74FF121F0EF1CE715F2414FBE433FA1A
:2052E0007D027F018053E4715971B9984007716F74FF121F0EE4F5FF71B144104E7F056013
:20530000027F0AEF547FFFE5D254804FF5D2E4F5FF43D280715FFD7C0071B144104E7E00A8
:2053200060047F0A80027F05EF25E0FFEE33FEEF2DFBEE3CFA7D017F011260CC71B1FFB11F
:20534000C24006A21092EDC322A21092EDD2EBD322A21092EDD2EBC322FB7D01FF717D9083
:20536000042912232FE92407F9E43AFA021EA490042912232FE92407F9E43AFA22E4F5FF73
:2053800075D102E5D120E0FBE4F5FFF5D1EF6008E4F5FF43D2808006E4F5FF53D27FEB6065
:2053A00006E4F5FF43D104ED6006E4F5FF43D10822900427E0FEA3E022FF900430E0FD9020
:2053C000042CE02DFDE433FCED2401FDE43CFCD3EF9DEC6480F874802290043C126AB275A5
:2053E0001401E4FBFDFF717D7B017A0479169124E4FD7F02B1A6F1CE9004167455F0900422
:205400003CE0900417F09004147402F090043EE090042530E507E4F0A3743CF022E4F0A390
:2054200074F0F022E4F5FFE9126353EA540F42D622C0E0C0F0C083C082C0D075D008C0FF75
:20544000124F198F18E5186402704FE51424F8603F24076002A183900425126C007027AB2B
:205460001CAA1DA91E9124AD16AF1FB1A6E4FB7D01FF717D75FF00F1C543FA0475FF00B10B
:20548000BB751408A18343FA0475FF00B1BBA183C2EB751400431504A183E51864016002DD
:2054A000A183F1E84002A183E510702B851282851183E090044BF0E0FF64556004EFB45425
:2054C0000BD211125CF4900424F0A15475100275FF0075D908A183E51064027056B19AE01E
:2054E00090044BF01265EF12609F900413EFF090044BE0FFD394094025900413E0D394025D
:20550000400CEFD394AA7F0040027F01800D90044BE0D394407F0040027F01EF6004B19036
:20552000803290044BE0FFF51675FF008FD97510038050E5106403704AB19075FF0090045D
:2055400013E0C39403E5D350055402FF80035401FFEF6004B1DB802BC236123E3875FF0047
:20556000D106E5D120E0FBC2EB431502751000900413E0B403071516B19AE516F09002B52A
:20558000E516F0D0FFD0D0D082D083D0F0D0E032301106C211F1DAD12B22E5122407F582CE
:2055A000E43511F58322E4F5FF8FD4F5FFCFEDCF8FD522D10F43FA04E4F5FF53D1FD43D1B9
:2055C00001224315015315DF125DF81260244004E4F514225315FBB1B5D322B1FEE5D12075
:2055E000E0FBE4F5FF75D901900413E07F00B403027F01B1B3D236123E38E4F51022C23673
:20560000123E38E4F5FFE5D154FE4402F5D12275FF01E5D530E602C322E4F5FF439A80EFA4
:20562000126CBCE4F5FF539A7FD32275FF01E5D520E702C322C237D1DF201F02C1CF53F419
:20564000DF904765E0FFD10F75FF0143D81030200543F440800353F4BFE4F5FF53F5F090DB
:205660004766E0FAA3E0FBEA42F5EBF5F6D237D1DF124F43E4F5FFE59320E605124F0E40C7
:20568000F3302059E5F430E3047D288010E5F430E2047D288007E5F430E1027D28F1BE7F6F
:2056A00028124F45124F0E40FB7F78124F45124F0E502AF19150F7F1B8EFC39D50F0F19169
:2056C00050ECE5F720E5E7C237D1DFF1BE80DF53F4BF125C19400643F420125C12D322AFC1
:2056E000F4EF547FF5F4303705EF4480F5F475FF01E5D520E702C322E5F4D330E601C3223E
:20570000900445EFF0C237D1DFD21F900445E0904765F0D220A3E4F0A3740DF0D12BE49065
:205720000446F0F1F7503F900446E07039E5F754C060F0F17EF17E900446EFF0BF5513F166
:205740007E900446126C0A6F90044670147402F080D1900446E0B454057433F080C59004AE
:20576000467401F080BD900446E0B40207C236123E388000F1DAD12B900446E0FF22E5F74C
:2057800020E008E5F754C070F5FF2243F701AFF92275FF01E5E43322E4FFE5F754C06002BE
:2057A000801675FF01E5D530E30DF19150F4F1B8EF60EFF19150EB22125C21AFD92275FFCB
:2057C00003E4F59122E5D254804414F5D222E4F5FFE5D25480440AF5D222C21FE4904765D3
:2057E000F0C220A3F0A3F022E5F754C024FF22C2EBA2ED9210C2EDE5F4C330E701D3221212
:2058000057F75005125C0B4003301103D38001C3225315FEE51530E5057F0112560F119298
:20582000EF70FB7F02122B9E7F0112570090044CEFF0BF0202801490044CE0B43312E4F026
:205840007F01125700BF020D90044C7401F08005E490044CF090044CE0700C1257F7500522
:20586000C236123E38116E90044CE024FF2211757F08022B9EE5FA30E1FB75FC8075FF01FB
:2058800053D5EFE4F5FC75FC401257BEE5FC20E6FB22E490468EF0A304F0E4904691F0E551
:2058A000FA30E1FB75FF01E5D530E7037F0022E4F5FF75E5089112E5D530E61A75FF01902C
:2058C0004690E5DAF0E4F5DA75FF01E5D630E3FB9046917401F075FF03759B0475FC4175D4
:2058E000FF03E59B30E7FBE4FB75FF038B95EB124C5EFF71CF0BEBB403EF75FF037595801B
:20590000E4F5FF758EC8316875FF0153D5FB1257BE7F14124F45124F5F75FF0143D5049072
:205920004691E070091257BE124F43124F5F7B017A46798F912B90468FE090468E7006E0AD
:205940004404FF8002E0FF90468EEFF090120EE0B4010675FF0143D81075FF01904690E0B6
:20596000F5DA90468EE0FF22E4F5FF75C2E17F1E515230E707E4F5FF75C2A122E4F5FF7586
:20598000C28122CDEFCDCCEECC31C8FFAB94EF4B7190CBEFCBFAE59130E71E31CBFFA994BF
:2059A000E9F582EF4582FFEB2DF582EA3CF583C3EF9582E5F0958340DDE59120E709CEEC92
:2059C000CECFEDCF124F5B2275FF03AF93EF75F010A422904696EFF0A371C8E9F075FF0138
:2059E000124F19EF64016002C322E5F430E602C3227FE87E03124F68124F49516640012247
:205A0000C236123E38904696E0FF12560F53F4DFD236123E387F787E00318375FF0153E4B9
:205A2000BFE5E430E7FB91217F8A515230E605515AE4800775FF01515AE5D9121F6375FF57
:205A40000143E4409119400343F4205166400122D322FE318390120FE022904697E0FBA33B
:205A6000E0FAA3E0F922E5F730E510E5F754C07005124F0E40F01257BEC322D322903E7E5C
:205A80001222E6E4F5FF75BB0575BB8575FF0175D502203105124F58316875FF0143D52014
:205AA0003031026147E4F5FF538EF7438E077D04E4F5FF8DBCF5FF43B102E5B130E2FBE440
:205AC000F5FFAFDFEFFEACDEECFBEBFFED25E0247CF582E4343E7172E4F5FFF5FF53B1FDED
:205AE0000DEDB40CCB903E7E124C6BFF780912225EA3EEF0A3EFF0E4FDED25E02486F58203
:205B0000E4343EF583E0C313FAA3E013FBED7161F583E0C313FEA3E0132BFFEE3AFEED7147
:205B2000617172ED240490120DF0EDC394075017CFEDCF0DEF7161716BFFC3903E83E09FF4
:205B4000903E82E09E50B2E4F5FF758EC8F5FF90120DE0F5BCE4F5FF75BB8075FF01F5D5D7
:205B60002225E02484F582E4343E22F583E0FEA3E022F583EEF0A3EFF02231C8FFAD94EF4A
:205B80004D71908FF01220C5E591C330E701D32224FBFFE5F034FF2290476271C8E9F07FE9
:205BA000017C127D01E4FEED2EF582E43CF583E02FFF0EEEB412F0901213E06F60099047C8
:205BC00062515DE4121F6322EBF0A3EAF0A32290468A1222E675FF0190468AA3E0FDA3A3E9
:205BE000E4FFFEE4FC781012225E8FE190468AA3A3E0FEA3E4FFE4FDFC780812225E8FE2F0
:205C000090468AA3A3A3E0FF8FE322E5F754E024FF2275FF0153D8EF2290120EE0D39401CA
:205C20002275FF01E4F5EA75EAFF22C23075FF03759B1F75FF0390120FE0FF20E71BE59A4A
:205C4000540FC394024012EF4480F0E4F5FF75C2A143FC0475FF03D230E5FC30E609E59AA8
:205C6000540FC3940540CCE5FC30E611E4121F6375FC80F5FC75FC40E5FC20E6FB30300301
:205C8000124DBF2290121CE07011124FDA4FFFA3E04FFFA3E04F7003D38001C3229002B18A
:205CA000E064AA2411FFF022AE07919DEE04FEEF8EF084AFF022302D0C903416E07006FF93
:205CC000122802C22D91CA0227F630112491F4FF900424E0FEEFC39E400AEF9ED3940240D0
:205CE00010C21122900424E0F42FD394014002C21122C2AD90379DE0A3E0229002BA12414E
:205D0000D16009CAEECAC9EFC91224762275FF02D2ADD2BD75FF02758E71755F0975FF02B7
:205D2000E58E546F4480F58E22C0E0C0F0C083C082C0D075D008C0FF75FF02E58E30E4292D
:205D400075FF02E58E54EF4410F58E900000E004F0E55F30E0020531E55F700B755F099024
:205D6000379D1247398002155F75FF02E58530E40875FF024385100561D0FFD0D0D082D086
:205D800083D0F0D0E032AF14EFC36001D322EFC3940E5005900415EFF022E517540FFF2240
:205DA0007E607F89903EEAE0FD122772903EE5E0FFE517C394F0501F5317F0B1DAFE740F13
:205DC000C39F4005EE940E400543170D8003EF4217E517540FFF227F0022E517C4540FFED3
:205DE000EF903900932E22B1DAFFC3940E40027F0DEF9038E293FF22EF30E303AF1322AD68
:205E00001B201204EE30E00BE517C394F05020D1328018E51A6006FDE4F51A8012E517C334
:205E200094F0500BE517540FFF6004B1E7AD07AF0522900415E0FDFFC3740ED155EFF1E3EC
:205E4000FEE51754F0C39FEE6480F87480987F005002AF05229FFFE49400FE22904692ED1A
:205E6000F0901211E0FEF46006A3E0FDB4FF0C9046947418F0A37413F08008904694EEF038
:205E8000A3EDF0121EA464016002E1B7904692E0FE64086004EEB404089046937428F08016
:205EA00006904693743AF0EF124C5EFF122229E4F1BFEF24D8FFEE343FFEED3493FDEC3420
:205EC00016FC7B007A80790378001235AA126BB3904695E0FF904694E0C3D155E4FCFD12BA
:205EE00020FFECC0E0EDC0E0EEC0E0EFC0E0904695F1B8F1BFD0E0FBD0E0FAD0E0F9D0E0DB
:205F0000F8EB2FFBEA3EFAE93DF9E83CF8904693F1B81220FFEF2454FFEE340B124DF3E40B
:205F20007BA87A16F9F81235AACBEFCB904692E014605F14601B24FE600C24FC7079E4F52D
:205F4000FF75CE318006E4F5FF75CE21F5FF8BCF22E4FAE4F5FFEA2440F5CEE4F5FFEAFF14
:205F6000C37407D15574D22FF58274393EF583E4F1C713C39DF5CFE4F5FFEA2448F5CEE4C6
:205F8000F5FFEA9039D2F1C7132DF5CF0AEAB408C222E4F5FF75CE01F5FF8BCFF5FF75CE97
:205FA0000EF5FFEB25E0F5CFE4F5FF75CE0FF5FFEB75F003A4F5CF22E0FFE4FCFDFE227BD9
:205FC00064FAF9F80220FF9325E0FDE433FCEB75F010A4FFAEF0121FA9CDEFCDEBFFE4C314
:205FE00013EF22C4F8540FC868FFEEC454F04822E51754F0C4540F2FFFC3941040027F0F03
:20600000EF9038F093FF227E10EE60091EEE9038F093B507F4EEC3940E40027E0DEE903863
:20602000E293FF22900437EFF0900414E024FD6011047007116B7404F08012116B7408F02D
:20604000800BE4900438F09004367402F07F01122B9E900438E0FF900436E0FDA3E0FBE4D6
:2060600090440FF0124DFB50E9D3229004387401F090043622E4F514023E0FC2AFEF4215B5
:20608000D2AF22C2AFEFF45215D2AF227F0211839002B4E09002BCF09002B404F0C322EF78
:2060A00024FE600C24FE600580007F01227F02227F0322E51520E5081255FEE5D120E0FB45
:2060C000E4F51022900425E0A3E0FF22900442EFF0ED24FE60191460262402703BEB2402BF
:2060E000FFE43AFE7C007D50121F977D60801E3140C333CE33CED8F9FF7C007D28800E3113
:2061000040C333CE33CED8F9FF7C007D64121FA9900443EEF0A3EFF0900442E0314BC083C7
:20612000C0821222DA900444E02401FF900443E03400FEE4FCFD1220E4D082D0830222E6A8
:20614000EB2401FFE43AFEEF78032225E025E02418F582E43404F58322EF314B1222BE02B6
:2061600022A4E49004183179E490041C3180E4FFFEFDFC9004200222E6FFFEFDFC0222E642
:20618000FFFEFDFC0222E67F017E009017FCE4935EFE7401935F4E24FFB3229000017401D8
:2061A00093B40007E493B41802C322D322EF7011ED600775FF0143AE012275FF0153AEFEB1
:2061C00022EFB40110ED600775FF0143AE022275FF0153AEFD2275FF02E5E630E2037F039E
:2061E00022E5E630E3037F0022E5E630E1037F0422E5E67F0530E0027F0122EF600775FFAA
:206200000253E6BF2275FF0243E64022EF14600F146014240270188B8075FF018DFD228B02
:206220009075FF018DC9228BA075FF018DCA22AF038FB075FF01AF058FCB229043F8122332
:206240004FEF1460111460182402701E5175E580517BE5FD801C5175E590517BE5C980127F
:206260005175E5A0517BE5CA80085175E5B0517BE5CB021F639043FB02232F121F6375FF4B
:20628000019043F802232FE4F5FFAF9122E4F5FFAF9222903F57E0121F63903F5CE0900034
:2062A00001121F75903F5DE0900002021F75EF75F004A4FDACF0E075F011A42408F97400DB
:2062C00035F0FAE92DF9EA3CFEAF01E4FCFD023FADFEAF01E4FDAB05E4FCFD9045BCEBF069
:2062E0000245E79044001247E4C00790440012232F90440351FBD0070241F3E0FFA3E0903E
:20630000411FCFF0A3EFF0229044071247E4C00790440712232F90440A7120D0070246C34B
:20632000E0FFA3E0903C90CFF0A3EFF022E4FF023FA1E4F5FF75D102E5D120E0FBE4F5D1FC
:20634000F5FFEF7153EE540F42D6E4F5FFCFEDCF8FD422F5D7E4F5FF53D6F022E4F5FF8FFF
:20636000D422E4F5FFE5D1540133333354F8FFE4F5FFE5D354074FFF22EF30E00E43F401C0
:20638000E4F5FF43A404F5FF759624EF30E10E43F401E4F5FF43A408F5FF759624EF30E2E6
:2063A0000943F402E4F5FF75961EEF30E30943F404E4F5FF75961075FF01EF5403600475CD
:2063C000D7122275D72D22E4F5FF7584E6F5FF439404F5FF75981422E4F5FF75933F75FFC7
:2063E00003759A4071C7E4F5FF759C93F5FF75A1A3F5FF758531F5FF758628E5FA5430440D
:2064000080F5FA75FF0175E74A75FF0275DF4975FF0143D30475FF0153D367E4F5FF53E63D
:20642000BF75FF0175D825F5FF75B503F5FF75B215F5FF75BA02F5FF75AFB3F5FF75CD0A35
:20644000F5FF75CB08F5FF75CA12F5FF75BF0EF5FF75CC96F5FFF5BDF5FF75C281F5FF75FF
:20646000AEE1F5FF75DA55F5FF75F580F5FF75E903F5FF75E933F5FF75972A75FF01759B8E
:2064800042759CA4759D29759E48759F2475A11275A312759AF820330CF5FF439680901290
:2064A0000FE04440F022CCEFCCCFEDCF74017E00C8EFC8088005C333CE33CED8F9FFCDECF8
:2064C000CDEF5D601B30321875FF0175DCAD75FF0175DDCDE4F5FF759A74F5FF75948422A9
:2064E00075FF0175DC5375FF0175DD33E4F5FF759A14F5FF7594042275FF0175E46575FFC4
:206500000175D647229045BDEFF0E4A3B1A9124DE1780112225E9045BDB1991222E6901291
:2065200010E0FF64806071EFC3947F5039EBB19BC083C082124C6BFFEEC0E0EFC0E0901226
:2065400010E075F004A4AEF0FBCAEECAEA3395E0F9F8D0E0FFD0E0FEC3EF9BFFEE9AFEED84
:2065600099FDEC98802A9045BDE0B19BC083C082B1AE901210E0F40475F004A4FFAEF0EE93
:206580003395E0FDFCEB2FFFEA3EFEE93DFDE83CFCD082D0831222E622E0FB25E025E024EE
:2065A00001F582E43412F58322FF7E04FDFCE0F8A3E0F9A3E0FAA3E0FB2275FF01E5D53055
:2065C000E602C32253FACFEFB4080543FA308012EFB4040543FA208009EFB4020543FA109A
:2065E0008000D322E5F45418131313541FFF22E5F75406FFBF06037F0822E5F75406FFBF7A
:2066000004037F0422E5F75406FFBF02037F02227F012275FF018FDA2275FF01E5D520E65B
:2066200002C322E5FA540360FA75FF018FC3D322CEEFCE75FF01E5D520E602C32243FA043F
:20664000E4FDEDC39E50077F55D1190D80F4E5FA543070047F0F80027FF0D119D322E5F764
:206660001322EFB40109D2AD75FF0143AE4022C2AD75FF0153AEBF2275C80122E5C85402C8
:20668000FF75C80222E5C85401FF22C0E0C0F0C083C082C0D075D000C000C001C002C003C7
:2066A000C004C005C006C007C0FF122BF8D0FFD007D006D005D004D003D002D001D000D095
:2066C000D0D082D083D0F0D0E032C0E0C0F0C083C082C0D075D000C000C001C002C003C033
:2066E00004C005C006C007C0FF122BE6D0FFD007D006D005D004D003D002D001D000D0D057
:20670000D082D083D0F0D0E032C0E0C0F0C083C082C0D075D000C000C001C002C003C004BE
:20672000C005C006C007C0FF122C34D0FFD007D006D005D004D003D002D001D000D0D0D0FB
:2067400082D083D0F0D0E032C0FFD0FF32C0E0C0F0C083C082C0D075D000C000C001C00215
:20676000C003C004C005C006C007C0FF122C40D0FFD007D006D005D004D003D002D001D098
:2067800000D0D0D082D083D0F0D0E032C0FFD0FF32C0FFD0FF3275ED402275ED2022E5ED58
:2067A00030E6FB75ED40AFEE22AFEE228FEE22E5ED20E4FB8FEE22EF600443EC402253EC76
:2067C000BF22EF600443EC802253EC7F22E5ED5420FF22E5ED5440FF22E5ED5410FF2290FF
:2067E00045AD126833E58F20E0FB126942538FF075FF01E4FF9045AD12232F8F82124760F4
:20680000F5930FEFB410EEE4FF9045B012232F8F82124760F5940FEFB410EE229047E9117E
:2068200033E4FF9047E93139E593121F750FEFB410F12212234F75FF01229044F012232FE2
:2068400090433012234F9044F012232F90433312234F7B017A2979B490432D1133E58F20DB
:20686000E0FB3142538FF075FF017E1090433012475AF593EE70F57E1090432D12475AF52E
:2068800094EE70F57F0111A43158EF70FB7E1090433312232F1E8E82758300E593121F75BD
:2068A000EE70EC22EFB40102214C75FF01E58F54F04406F58F229043361133E58F20E0FB80
:2068C0003142E58F54F04402F58F75FF017F1090433612232F1F8F82124760F59490433CD1
:2068E0003139E4121F75EF70E63130EA540FFD90433C12232FEAC4F854F0C8E9C4540F4837
:2069000054F04DF5923130E9F59875FF0190433C12232FE9F59675FF0175991075FF0175AF
